{
  "contractName": "communication",
  "abi": [
    {
      "inputs": [
        {
          "internalType": "address",
          "name": "from",
          "type": "address"
        },
        {
          "internalType": "address",
          "name": "to",
          "type": "address"
        },
        {
          "internalType": "string",
          "name": "message",
          "type": "string"
        }
      ],
      "name": "sendMessage",
      "outputs": [],
      "stateMutability": "nonpayable",
      "type": "function"
    },
    {
      "inputs": [],
      "name": "viewMessages",
      "outputs": [
        {
          "internalType": "string[]",
          "name": "",
          "type": "string[]"
        },
        {
          "internalType": "address[]",
          "name": "",
          "type": "address[]"
        },
        {
          "internalType": "address[]",
          "name": "",
          "type": "address[]"
        }
      ],
      "stateMutability": "view",
      "type": "function",
      "constant": true
    },
    {
      "inputs": [
        {
          "internalType": "address",
          "name": "wallet",
          "type": "address"
        },
        {
          "internalType": "string",
          "name": "filehash",
          "type": "string"
        },
        {
          "internalType": "address[]",
          "name": "to",
          "type": "address[]"
        }
      ],
      "name": "sendFiles",
      "outputs": [],
      "stateMutability": "nonpayable",
      "type": "function"
    },
    {
      "inputs": [],
      "name": "viewFiles",
      "outputs": [
        {
          "internalType": "address[]",
          "name": "",
          "type": "address[]"
        },
        {
          "internalType": "string[]",
          "name": "",
          "type": "string[]"
        },
        {
          "internalType": "address[][]",
          "name": "",
          "type": "address[][]"
        }
      ],
      "stateMutability": "view",
      "type": "function",
      "constant": true
    }
  ],
  "bytecode": "0x608060405234801561001057600080fd5b506112a2806100206000396000f3fe608060405234801561001057600080fd5b506004361061004c5760003560e01c80632a8b051814610051578063b1d7a9e714610071578063b88e318d1461008d578063e43fdb6c146100a9575b600080fd5b6100596100c9565b60405161006893929190610b62565b60405180910390f35b61008b60048036038101906100869190610deb565b610309565b005b6100a760048036038101906100a29190610e76565b61044f565b005b6100b161054f565b6040516100c093929190610ee5565b60405180910390f35b60608060606003600460058280548060200260200160405190810160405280929190818152602001828054801561015557602002820191906000526020600020905b8160009054906101000a900473ffffffffffffffffffffffffffffffffffffffff1673ffffffffffffffffffffffffffffffffffffffff168152602001906001019080831161010b575b5050505050925081805480602002602001604051908101604052809291908181526020016000905b8282101561022957838290600052602060002001805461019c90610f60565b80601f01602080910402602001604051908101604052809291908181526020018280546101c890610f60565b80156102155780601f106101ea57610100808354040283529160200191610215565b820191906000526020600020905b8154815290600101906020018083116101f857829003601f168201915b50505050508152602001906001019061017d565b50505050915080805480602002602001604051908101604052809291908181526020016000905b828210156102f8578382906000526020600020018054806020026020016040519081016040528092919081815260200182805480156102e457602002820191906000526020600020905b8160009054906101000a900473ffffffffffffffffffffffffffffffffffffffff1673ffffffffffffffffffffffffffffffffffffffff168152602001906001019080831161029a575b505050505081526020019060010190610250565b505050509050925092509250909192565b6006826040516103199190610fcd565b908152602001604051809103902060009054906101000a900460ff161561033f57600080fd5b6003839080600181540180825580915050600190039060005260206000200160009091909190916101000a81548173ffffffffffffffffffffffffffffffffffffffff021916908373ffffffffffffffffffffffffffffffffffffffff1602179055506004829080600181540180825580915050600190039060005260206000200160009091909190915090816103d6919061119a565b50600581908060018154018082558091505060019003906000526020600020016000909190919091509080519060200190610412929190610748565b5060016006836040516104259190610fcd565b908152602001604051809103902060006101000a81548160ff021916908315150217905550505050565b600081908060018154018082558091505060019003906000526020600020016000909190919091509081610483919061119a565b506001839080600181540180825580915050600190039060005260206000200160009091909190916101000a81548173ffffffffffffffffffffffffffffffffffffffff021916908373ffffffffffffffffffffffffffffffffffffffff1602179055506002829080600181540180825580915050600190039060005260206000200160009091909190916101000a81548173ffffffffffffffffffffffffffffffffffffffff021916908373ffffffffffffffffffffffffffffffffffffffff160217905550505050565b606080606060006001600282805480602002602001604051908101604052809291908181526020016000905b8282101561062757838290600052602060002001805461059a90610f60565b80601f01602080910402602001604051908101604052809291908181526020018280546105c690610f60565b80156106135780601f106105e857610100808354040283529160200191610613565b820191906000526020600020905b8154815290600101906020018083116105f657829003601f168201915b50505050508152602001906001019061057b565b505050509250818054806020026020016040519081016040528092919081815260200182805480156106ae57602002820191906000526020600020905b8160009054906101000a900473ffffffffffffffffffffffffffffffffffffffff1673ffffffffffffffffffffffffffffffffffffffff1681526020019060010190808311610664575b505050505091508080548060200260200160405190810160405280929190818152602001828054801561073657602002820191906000526020600020905b8160009054906101000a900473ffffffffffffffffffffffffffffffffffffffff1673ffffffffffffffffffffffffffffffffffffffff16815260200190600101908083116106ec575b50505050509050925092509250909192565b8280548282559060005260206000209081019282156107c1579160200282015b828111156107c05782518260006101000a81548173ffffffffffffffffffffffffffffffffffffffff021916908373ffffffffffffffffffffffffffffffffffffffff16021790555091602001919060010190610768565b5b5090506107ce91906107d2565b5090565b5b808211156107eb5760008160009055506001016107d3565b5090565b600081519050919050565b600082825260208201905092915050565b6000819050602082019050919050565b600073ffffffffffffffffffffffffffffffffffffffff82169050919050565b60006108468261081b565b9050919050565b6108568161083b565b82525050565b6000610868838361084d565b60208301905092915050565b6000602082019050919050565b600061088c826107ef565b61089681856107fa565b93506108a18361080b565b8060005b838110156108d25781516108b9888261085c565b97506108c483610874565b9250506001810190506108a5565b5085935050505092915050565b600081519050919050565b600082825260208201905092915050565b6000819050602082019050919050565b600081519050919050565b600082825260208201905092915050565b60005b8381101561094557808201518184015260208101905061092a565b60008484015250505050565b6000601f19601f8301169050919050565b600061096d8261090b565b6109778185610916565b9350610987818560208601610927565b61099081610951565b840191505092915050565b60006109a78383610962565b905092915050565b6000602082019050919050565b60006109c7826108df565b6109d181856108ea565b9350836020820285016109e3856108fb565b8060005b85811015610a1f5784840389528151610a00858261099b565b9450610a0b836109af565b925060208a019950506001810190506109e7565b50829750879550505050505092915050565b600081519050919050565b600082825260208201905092915050565b6000819050602082019050919050565b600082825260208201905092915050565b6000610a79826107ef565b610a838185610a5d565b9350610a8e8361080b565b8060005b83811015610abf578151610aa6888261085c565b9750610ab183610874565b925050600181019050610a92565b5085935050505092915050565b6000610ad88383610a6e565b905092915050565b6000602082019050919050565b6000610af882610a31565b610b028185610a3c565b935083602082028501610b1485610a4d565b8060005b85811015610b505784840389528151610b318582610acc565b9450610b3c83610ae0565b925060208a01995050600181019050610b18565b50829750879550505050505092915050565b60006060820190508181036000830152610b7c8186610881565b90508181036020830152610b9081856109bc565b90508181036040830152610ba48184610aed565b9050949350505050565b6000604051905090565b600080fd5b600080fd5b610bcb8161083b565b8114610bd657600080fd5b50565b600081359050610be881610bc2565b92915050565b600080fd5b600080fd5b7f4e487b7100000000000000000000000000000000000000000000000000000000600052604160045260246000fd5b610c3082610951565b810181811067ffffffffffffffff82111715610c4f57610c4e610bf8565b5b80604052505050565b6000610c62610bae565b9050610c6e8282610c27565b919050565b600067ffffffffffffffff821115610c8e57610c8d610bf8565b5b610c9782610951565b9050602081019050919050565b82818337600083830152505050565b6000610cc6610cc184610c73565b610c58565b905082815260208101848484011115610ce257610ce1610bf3565b5b610ced848285610ca4565b509392505050565b600082601f830112610d0a57610d09610bee565b5b8135610d1a848260208601610cb3565b91505092915050565b600067ffffffffffffffff821115610d3e57610d3d610bf8565b5b602082029050602081019050919050565b600080fd5b6000610d67610d6284610d23565b610c58565b90508083825260208201905060208402830185811115610d8a57610d89610d4f565b5b835b81811015610db35780610d9f8882610bd9565b845260208401935050602081019050610d8c565b5050509392505050565b600082601f830112610dd257610dd1610bee565b5b8135610de2848260208601610d54565b91505092915050565b600080600060608486031215610e0457610e03610bb8565b5b6000610e1286828701610bd9565b935050602084013567ffffffffffffffff811115610e3357610e32610bbd565b5b610e3f86828701610cf5565b925050604084013567ffffffffffffffff811115610e6057610e5f610bbd565b5b610e6c86828701610dbd565b9150509250925092565b600080600060608486031215610e8f57610e8e610bb8565b5b6000610e9d86828701610bd9565b9350506020610eae86828701610bd9565b925050604084013567ffffffffffffffff811115610ecf57610ece610bbd565b5b610edb86828701610cf5565b9150509250925092565b60006060820190508181036000830152610eff81866109bc565b90508181036020830152610f138185610881565b90508181036040830152610f278184610881565b9050949350505050565b7f4e487b7100000000000000000000000000000000000000000000000000000000600052602260045260246000fd5b60006002820490506001821680610f7857607f821691505b602082108103610f8b57610f8a610f31565b5b50919050565b600081905092915050565b6000610fa78261090b565b610fb18185610f91565b9350610fc1818560208601610927565b80840191505092915050565b6000610fd98284610f9c565b915081905092915050565b60008190508160005260206000209050919050565b60006020601f8301049050919050565b600082821b905092915050565b6000600883026110467fffffffffffffffffffffffffffffffffffffffffffffffffffffffffffffffff82611009565b6110508683611009565b95508019841693508086168417925050509392505050565b6000819050919050565b6000819050919050565b600061109761109261108d84611068565b611072565b611068565b9050919050565b6000819050919050565b6110b18361107c565b6110c56110bd8261109e565b848454611016565b825550505050565b600090565b6110da6110cd565b6110e58184846110a8565b505050565b5b81811015611109576110fe6000826110d2565b6001810190506110eb565b5050565b601f82111561114e5761111f81610fe4565b61112884610ff9565b81016020851015611137578190505b61114b61114385610ff9565b8301826110ea565b50505b505050565b600082821c905092915050565b600061117160001984600802611153565b1980831691505092915050565b600061118a8383611160565b9150826002028217905092915050565b6111a38261090b565b67ffffffffffffffff8111156111bc576111bb610bf8565b5b6111c68254610f60565b6111d182828561110d565b600060209050601f83116001811461120457600084156111f2578287015190505b6111fc858261117e565b865550611264565b601f19841661121286610fe4565b60005b8281101561123a57848901518255600182019150602085019450602081019050611215565b868310156112575784890151611253601f891682611160565b8355505b6001600288020188555050505b50505050505056fea26469706673582212204eacca40503b07ac6c424c7a732259a9b739150b182293f9f30050ef0228e1fa64736f6c63430008130033",
  "immutableReferences": {},
  "source": "// SPDX-License-Identifier: MIT\npragma solidity 0.8.19;\n\ncontract communication {\n\n\nstring[] _messages;\naddress[] from_message;\naddress[] to_message;\n\n\n\naddress[]  from_file;\nstring[]  _filehash;\naddress[][] _owners; //to whom...\n\nmapping(string =>bool) _f;\n\n\n\nfunction sendMessage(address from,address to,string memory message) public{\n\n_messages.push(message);\nfrom_message.push(from);\nto_message.push(to);\n\n\n}\n\nfunction viewMessages()public view returns(string[] memory,address[] memory,address[] memory){\n\nreturn(_messages,from_message,to_message);\n}\n\n\n\nfunction sendFiles(address wallet,string memory filehash,address[] memory to) public{\n\nrequire(!_f[filehash]);\n\nfrom_file.push(wallet);\n_filehash.push(filehash);\n_owners.push(to);\n\n_f[filehash]=true;\n\n}\n\nfunction viewFiles() public view returns(address[] memory, string [] memory, address[][] memory)\n{\n\nreturn (from_file,_filehash,_owners);\n\n}\n\n\n}\n",
  "sourcePath": "D:\\workfiles\\Quantum\\Quantum_Blockchian_integration\\contracts\\communication.sol",
  "compiler": {
    "name": "solc",
    "version": "0.8.19+commit.7dd6d404.Emscripten.clang"
  },
  "schemaVersion": "3.4.16",
  "updatedAt": "2024-01-04T17:07:45.948Z",
  "networkType": "ethereum",
  "devdoc": {
    "kind": "dev",
    "methods": {},
    "version": 1
  },
  "userdoc": {
    "kind": "user",
    "methods": {},
    "version": 1
  }
}