{
  "contractName": "network",
  "abi": [
    {
      "inputs": [],
      "stateMutability": "nonpayable",
      "type": "constructor"
    },
    {
      "inputs": [
        {
          "internalType": "address",
          "name": "wallet",
          "type": "address"
        },
        {
          "internalType": "string",
          "name": "name",
          "type": "string"
        },
        {
          "internalType": "uint256",
          "name": "password",
          "type": "uint256"
        }
      ],
      "name": "addCommanders",
      "outputs": [],
      "stateMutability": "nonpayable",
      "type": "function"
    },
    {
      "inputs": [
        {
          "internalType": "address",
          "name": "wallet",
          "type": "address"
        },
        {
          "internalType": "uint256",
          "name": "password",
          "type": "uint256"
        }
      ],
      "name": "login",
      "outputs": [
        {
          "internalType": "bool",
          "name": "",
          "type": "bool"
        }
      ],
      "stateMutability": "view",
      "type": "function",
      "constant": true
    },
    {
      "inputs": [],
      "name": "viewCommanders",
      "outputs": [
        {
          "internalType": "address[]",
          "name": "",
          "type": "address[]"
        },
        {
          "internalType": "string[]",
          "name": "",
          "type": "string[]"
        }
      ],
      "stateMutability": "view",
      "type": "function",
      "constant": true
    }
  ],
  "bytecode": "0x608060405234801561001057600080fd5b50336000806101000a81548173ffffffffffffffffffffffffffffffffffffffff021916908373ffffffffffffffffffffffffffffffffffffffff160217905550610dd7806100606000396000f3fe608060405234801561001057600080fd5b50600436106100415760003560e01c806341ea94381461004657806372623819146100625780638e866d6e14610092575b600080fd5b610060600480360381019061005b9190610702565b6100b1565b005b61007c60048036038101906100779190610771565b61027e565b60405161008991906107cc565b60405180910390f35b61009a6103aa565b6040516100a89291906109e6565b60405180910390f35b3373ffffffffffffffffffffffffffffffffffffffff1660008054906101000a900473ffffffffffffffffffffffffffffffffffffffff1673ffffffffffffffffffffffffffffffffffffffff161461010957600080fd5b600460008473ffffffffffffffffffffffffffffffffffffffff1673ffffffffffffffffffffffffffffffffffffffff16815260200190815260200160002060009054906101000a900460ff161561016057600080fd5b6001839080600181540180825580915050600190039060005260206000200160009091909190916101000a81548173ffffffffffffffffffffffffffffffffffffffff021916908373ffffffffffffffffffffffffffffffffffffffff1602179055506002829080600181540180825580915050600190039060005260206000200160009091909190915090816101f79190610c29565b5060038190806001815401808255809150506001900390600052602060002001600090919091909150556001600460008573ffffffffffffffffffffffffffffffffffffffff1673ffffffffffffffffffffffffffffffffffffffff16815260200190815260200160002060006101000a81548160ff021916908315150217905550505050565b6000600460008473ffffffffffffffffffffffffffffffffffffffff1673ffffffffffffffffffffffffffffffffffffffff16815260200190815260200160002060009054906101000a900460ff166102d657600080fd5b60005b60018054905081101561039e578373ffffffffffffffffffffffffffffffffffffffff166001828154811061031157610310610cfb565b5b9060005260206000200160009054906101000a900473ffffffffffffffffffffffffffffffffffffffff1673ffffffffffffffffffffffffffffffffffffffff1614801561037c5750826003828154811061036f5761036e610cfb565b5b9060005260206000200154145b1561038b5760019150506103a4565b808061039690610d59565b9150506102d9565b50600090505b92915050565b606080600160028180548060200260200160405190810160405280929190818152602001828054801561043257602002820191906000526020600020905b8160009054906101000a900473ffffffffffffffffffffffffffffffffffffffff1673ffffffffffffffffffffffffffffffffffffffff16815260200190600101908083116103e8575b5050505050915080805480602002602001604051908101604052809291908181526020016000905b8282101561050657838290600052602060002001805461047990610a4c565b80601f01602080910402602001604051908101604052809291908181526020018280546104a590610a4c565b80156104f25780601f106104c7576101008083540402835291602001916104f2565b820191906000526020600020905b8154815290600101906020018083116104d557829003601f168201915b50505050508152602001906001019061045a565b505050509050915091509091565b6000604051905090565b600080fd5b600080fd5b600073ffffffffffffffffffffffffffffffffffffffff82169050919050565b600061055382610528565b9050919050565b61056381610548565b811461056e57600080fd5b50565b6000813590506105808161055a565b92915050565b600080fd5b600080fd5b6000601f19601f8301169050919050565b7f4e487b7100000000000000000000000000000000000000000000000000000000600052604160045260246000fd5b6105d982610590565b810181811067ffffffffffffffff821117156105f8576105f76105a1565b5b80604052505050565b600061060b610514565b905061061782826105d0565b919050565b600067ffffffffffffffff821115610637576106366105a1565b5b61064082610590565b9050602081019050919050565b82818337600083830152505050565b600061066f61066a8461061c565b610601565b90508281526020810184848401111561068b5761068a61058b565b5b61069684828561064d565b509392505050565b600082601f8301126106b3576106b2610586565b5b81356106c384826020860161065c565b91505092915050565b6000819050919050565b6106df816106cc565b81146106ea57600080fd5b50565b6000813590506106fc816106d6565b92915050565b60008060006060848603121561071b5761071a61051e565b5b600061072986828701610571565b935050602084013567ffffffffffffffff81111561074a57610749610523565b5b6107568682870161069e565b9250506040610767868287016106ed565b9150509250925092565b600080604083850312156107885761078761051e565b5b600061079685828601610571565b92505060206107a7858286016106ed565b9150509250929050565b60008115159050919050565b6107c6816107b1565b82525050565b60006020820190506107e160008301846107bd565b92915050565b600081519050919050565b600082825260208201905092915050565b6000819050602082019050919050565b61081c81610548565b82525050565b600061082e8383610813565b60208301905092915050565b6000602082019050919050565b6000610852826107e7565b61085c81856107f2565b935061086783610803565b8060005b8381101561089857815161087f8882610822565b975061088a8361083a565b92505060018101905061086b565b5085935050505092915050565b600081519050919050565b600082825260208201905092915050565b6000819050602082019050919050565b600081519050919050565b600082825260208201905092915050565b60005b8381101561090b5780820151818401526020810190506108f0565b60008484015250505050565b6000610922826108d1565b61092c81856108dc565b935061093c8185602086016108ed565b61094581610590565b840191505092915050565b600061095c8383610917565b905092915050565b6000602082019050919050565b600061097c826108a5565b61098681856108b0565b935083602082028501610998856108c1565b8060005b858110156109d457848403895281516109b58582610950565b94506109c083610964565b925060208a0199505060018101905061099c565b50829750879550505050505092915050565b60006040820190508181036000830152610a008185610847565b90508181036020830152610a148184610971565b90509392505050565b7f4e487b7100000000000000000000000000000000000000000000000000000000600052602260045260246000fd5b60006002820490506001821680610a6457607f821691505b602082108103610a7757610a76610a1d565b5b50919050565b60008190508160005260206000209050919050565b60006020601f8301049050919050565b600082821b905092915050565b600060088302610adf7fffffffffffffffffffffffffffffffffffffffffffffffffffffffffffffffff82610aa2565b610ae98683610aa2565b95508019841693508086168417925050509392505050565b6000819050919050565b6000610b26610b21610b1c846106cc565b610b01565b6106cc565b9050919050565b6000819050919050565b610b4083610b0b565b610b54610b4c82610b2d565b848454610aaf565b825550505050565b600090565b610b69610b5c565b610b74818484610b37565b505050565b5b81811015610b9857610b8d600082610b61565b600181019050610b7a565b5050565b601f821115610bdd57610bae81610a7d565b610bb784610a92565b81016020851015610bc6578190505b610bda610bd285610a92565b830182610b79565b50505b505050565b600082821c905092915050565b6000610c0060001984600802610be2565b1980831691505092915050565b6000610c198383610bef565b9150826002028217905092915050565b610c32826108d1565b67ffffffffffffffff811115610c4b57610c4a6105a1565b5b610c558254610a4c565b610c60828285610b9c565b600060209050601f831160018114610c935760008415610c81578287015190505b610c8b8582610c0d565b865550610cf3565b601f198416610ca186610a7d565b60005b82811015610cc957848901518255600182019150602085019450602081019050610ca4565b86831015610ce65784890151610ce2601f891682610bef565b8355505b6001600288020188555050505b505050505050565b7f4e487b7100000000000000000000000000000000000000000000000000000000600052603260045260246000fd5b7f4e487b7100000000000000000000000000000000000000000000000000000000600052601160045260246000fd5b6000610d64826106cc565b91507fffffffffffffffffffffffffffffffffffffffffffffffffffffffffffffffff8203610d9657610d95610d2a565b5b60018201905091905056fea26469706673582212208e8f645f1393fc40a45bc2feb7c0222e063c5f799b47ac413620285dc12b5cb964736f6c63430008130033",
  "immutableReferences": {},
  "source": "// SPDX-License-Identifier: MIT\npragma solidity 0.8.19;\n\ncontract network {\n// only owner -admin\n\naddress owner;\n\n\naddress[] _commanders;\nstring [] _commandernames;\nuint[] _commanderpasswords;\n\nmapping(address=> bool) _c;\n\n\nconstructor(){\n    owner= msg.sender;\n}\n\nmodifier onlyOwner{\n    require(owner==msg.sender);\n    _;\n}\n\n\n//Admin can only-  trasaction..\nfunction addCommanders(address wallet,string memory name,uint password) public onlyOwner {\n\nrequire(!_c[wallet]);\n\n_commanders.push(wallet);\n_commandernames.push(name);\n_commanderpasswords.push(password);\n\n_c[wallet]=true;\n\n\n}\n\n\n// Any one can..\nfunction login(address wallet,uint password) public view returns(bool){\n\nrequire(_c[wallet]);\n\nfor(uint i=0;i<_commanders.length;i++)\n{\n    if(_commanders[i]==wallet && _commanderpasswords[i]==password)\n    {\n        return true;\n    }\n}\n\nreturn false;\n\n}\n\n\n//Any one can...\nfunction viewCommanders() public view returns(address[] memory ,string[] memory){\n\nreturn( _commanders,_commandernames);\n}\n\n\n}\n",
  "sourcePath": "D:\\workfiles\\Quantum\\Quantum_Blockchian_integration\\contracts\\network.sol",
  "compiler": {
    "name": "solc",
    "version": "0.8.19+commit.7dd6d404.Emscripten.clang"
  },
  "schemaVersion": "3.4.16",
  "updatedAt": "2024-01-04T17:07:45.802Z",
  "networkType": "ethereum",
  "devdoc": {
    "kind": "dev",
    "methods": {},
    "version": 1
  },
  "userdoc": {
    "kind": "user",
    "methods": {},
    "version": 1
  }
}